{
  "_format": "hh-sol-artifact-1",
  "contractName": "Domains",
  "sourceName": "contracts/Domains.sol",
  "abi": [
    {
      "inputs": [
        {
          "internalType": "string",
          "name": "_tld",
          "type": "string"
        }
      ],
      "stateMutability": "payable",
      "type": "constructor"
    },
    {
      "inputs": [],
      "name": "AlreadyRegistered",
      "type": "error"
    },
    {
      "inputs": [
        {
          "internalType": "string",
          "name": "name",
          "type": "string"
        }
      ],
      "name": "InvalidName",
      "type": "error"
    },
    {
      "inputs": [],
      "name": "Unauthorized",
      "type": "error"
    },
    {
      "anonymous": false,
      "inputs": [
        {
          "indexed": true,
          "internalType": "address",
          "name": "owner",
          "type": "address"
        },
        {
          "indexed": true,
          "internalType": "address",
          "name": "approved",
          "type": "address"
        },
        {
          "indexed": true,
          "internalType": "uint256",
          "name": "tokenId",
          "type": "uint256"
        }
      ],
      "name": "Approval",
      "type": "event"
    },
    {
      "anonymous": false,
      "inputs": [
        {
          "indexed": true,
          "internalType": "address",
          "name": "owner",
          "type": "address"
        },
        {
          "indexed": true,
          "internalType": "address",
          "name": "operator",
          "type": "address"
        },
        {
          "indexed": false,
          "internalType": "bool",
          "name": "approved",
          "type": "bool"
        }
      ],
      "name": "ApprovalForAll",
      "type": "event"
    },
    {
      "anonymous": false,
      "inputs": [
        {
          "indexed": true,
          "internalType": "address",
          "name": "from",
          "type": "address"
        },
        {
          "indexed": true,
          "internalType": "address",
          "name": "to",
          "type": "address"
        },
        {
          "indexed": true,
          "internalType": "uint256",
          "name": "tokenId",
          "type": "uint256"
        }
      ],
      "name": "Transfer",
      "type": "event"
    },
    {
      "inputs": [
        {
          "internalType": "address",
          "name": "to",
          "type": "address"
        },
        {
          "internalType": "uint256",
          "name": "tokenId",
          "type": "uint256"
        }
      ],
      "name": "approve",
      "outputs": [],
      "stateMutability": "nonpayable",
      "type": "function"
    },
    {
      "inputs": [
        {
          "internalType": "address",
          "name": "owner",
          "type": "address"
        }
      ],
      "name": "balanceOf",
      "outputs": [
        {
          "internalType": "uint256",
          "name": "",
          "type": "uint256"
        }
      ],
      "stateMutability": "view",
      "type": "function"
    },
    {
      "inputs": [
        {
          "internalType": "string",
          "name": "",
          "type": "string"
        }
      ],
      "name": "domains",
      "outputs": [
        {
          "internalType": "address",
          "name": "",
          "type": "address"
        }
      ],
      "stateMutability": "view",
      "type": "function"
    },
    {
      "inputs": [
        {
          "internalType": "string",
          "name": "name",
          "type": "string"
        }
      ],
      "name": "getAddress",
      "outputs": [
        {
          "internalType": "address",
          "name": "",
          "type": "address"
        }
      ],
      "stateMutability": "view",
      "type": "function"
    },
    {
      "inputs": [],
      "name": "getAllNames",
      "outputs": [
        {
          "internalType": "string[]",
          "name": "",
          "type": "string[]"
        }
      ],
      "stateMutability": "view",
      "type": "function"
    },
    {
      "inputs": [
        {
          "internalType": "uint256",
          "name": "tokenId",
          "type": "uint256"
        }
      ],
      "name": "getApproved",
      "outputs": [
        {
          "internalType": "address",
          "name": "",
          "type": "address"
        }
      ],
      "stateMutability": "view",
      "type": "function"
    },
    {
      "inputs": [
        {
          "internalType": "string",
          "name": "name",
          "type": "string"
        }
      ],
      "name": "getRecord",
      "outputs": [
        {
          "internalType": "string",
          "name": "",
          "type": "string"
        }
      ],
      "stateMutability": "view",
      "type": "function"
    },
    {
      "inputs": [
        {
          "internalType": "address",
          "name": "owner",
          "type": "address"
        },
        {
          "internalType": "address",
          "name": "operator",
          "type": "address"
        }
      ],
      "name": "isApprovedForAll",
      "outputs": [
        {
          "internalType": "bool",
          "name": "",
          "type": "bool"
        }
      ],
      "stateMutability": "view",
      "type": "function"
    },
    {
      "inputs": [],
      "name": "isOwner",
      "outputs": [
        {
          "internalType": "bool",
          "name": "",
          "type": "bool"
        }
      ],
      "stateMutability": "view",
      "type": "function"
    },
    {
      "inputs": [],
      "name": "name",
      "outputs": [
        {
          "internalType": "string",
          "name": "",
          "type": "string"
        }
      ],
      "stateMutability": "view",
      "type": "function"
    },
    {
      "inputs": [
        {
          "internalType": "uint256",
          "name": "",
          "type": "uint256"
        }
      ],
      "name": "names",
      "outputs": [
        {
          "internalType": "string",
          "name": "",
          "type": "string"
        }
      ],
      "stateMutability": "view",
      "type": "function"
    },
    {
      "inputs": [],
      "name": "owner",
      "outputs": [
        {
          "internalType": "address payable",
          "name": "",
          "type": "address"
        }
      ],
      "stateMutability": "view",
      "type": "function"
    },
    {
      "inputs": [
        {
          "internalType": "uint256",
          "name": "tokenId",
          "type": "uint256"
        }
      ],
      "name": "ownerOf",
      "outputs": [
        {
          "internalType": "address",
          "name": "",
          "type": "address"
        }
      ],
      "stateMutability": "view",
      "type": "function"
    },
    {
      "inputs": [
        {
          "internalType": "string",
          "name": "name",
          "type": "string"
        }
      ],
      "name": "price",
      "outputs": [
        {
          "internalType": "uint256",
          "name": "",
          "type": "uint256"
        }
      ],
      "stateMutability": "pure",
      "type": "function"
    },
    {
      "inputs": [
        {
          "internalType": "string",
          "name": "",
          "type": "string"
        }
      ],
      "name": "records",
      "outputs": [
        {
          "internalType": "string",
          "name": "",
          "type": "string"
        }
      ],
      "stateMutability": "view",
      "type": "function"
    },
    {
      "inputs": [
        {
          "internalType": "string",
          "name": "name",
          "type": "string"
        }
      ],
      "name": "register",
      "outputs": [],
      "stateMutability": "payable",
      "type": "function"
    },
    {
      "inputs": [
        {
          "internalType": "address",
          "name": "from",
          "type": "address"
        },
        {
          "internalType": "address",
          "name": "to",
          "type": "address"
        },
        {
          "internalType": "uint256",
          "name": "tokenId",
          "type": "uint256"
        }
      ],
      "name": "safeTransferFrom",
      "outputs": [],
      "stateMutability": "nonpayable",
      "type": "function"
    },
    {
      "inputs": [
        {
          "internalType": "address",
          "name": "from",
          "type": "address"
        },
        {
          "internalType": "address",
          "name": "to",
          "type": "address"
        },
        {
          "internalType": "uint256",
          "name": "tokenId",
          "type": "uint256"
        },
        {
          "internalType": "bytes",
          "name": "_data",
          "type": "bytes"
        }
      ],
      "name": "safeTransferFrom",
      "outputs": [],
      "stateMutability": "nonpayable",
      "type": "function"
    },
    {
      "inputs": [
        {
          "internalType": "address",
          "name": "operator",
          "type": "address"
        },
        {
          "internalType": "bool",
          "name": "approved",
          "type": "bool"
        }
      ],
      "name": "setApprovalForAll",
      "outputs": [],
      "stateMutability": "nonpayable",
      "type": "function"
    },
    {
      "inputs": [
        {
          "internalType": "string",
          "name": "name",
          "type": "string"
        },
        {
          "internalType": "string",
          "name": "record",
          "type": "string"
        }
      ],
      "name": "setRecord",
      "outputs": [],
      "stateMutability": "nonpayable",
      "type": "function"
    },
    {
      "inputs": [
        {
          "internalType": "bytes4",
          "name": "interfaceId",
          "type": "bytes4"
        }
      ],
      "name": "supportsInterface",
      "outputs": [
        {
          "internalType": "bool",
          "name": "",
          "type": "bool"
        }
      ],
      "stateMutability": "view",
      "type": "function"
    },
    {
      "inputs": [],
      "name": "symbol",
      "outputs": [
        {
          "internalType": "string",
          "name": "",
          "type": "string"
        }
      ],
      "stateMutability": "view",
      "type": "function"
    },
    {
      "inputs": [],
      "name": "tld",
      "outputs": [
        {
          "internalType": "string",
          "name": "",
          "type": "string"
        }
      ],
      "stateMutability": "view",
      "type": "function"
    },
    {
      "inputs": [
        {
          "internalType": "uint256",
          "name": "tokenId",
          "type": "uint256"
        }
      ],
      "name": "tokenURI",
      "outputs": [
        {
          "internalType": "string",
          "name": "",
          "type": "string"
        }
      ],
      "stateMutability": "view",
      "type": "function"
    },
    {
      "inputs": [
        {
          "internalType": "address",
          "name": "from",
          "type": "address"
        },
        {
          "internalType": "address",
          "name": "to",
          "type": "address"
        },
        {
          "internalType": "uint256",
          "name": "tokenId",
          "type": "uint256"
        }
      ],
      "name": "transferFrom",
      "outputs": [],
      "stateMutability": "nonpayable",
      "type": "function"
    },
    {
      "inputs": [
        {
          "internalType": "string",
          "name": "name",
          "type": "string"
        }
      ],
      "name": "valid",
      "outputs": [
        {
          "internalType": "bool",
          "name": "",
          "type": "bool"
        }
      ],
      "stateMutability": "pure",
      "type": "function"
    },
    {
      "inputs": [],
      "name": "withdraw",
      "outputs": [],
      "stateMutability": "nonpayable",
      "type": "function"
    }
  ],
  "bytecode": "0x6080604052604051806104e001604052806104a18152602001620052f26104a19139600a908051906020019062000038929190620002c8565b506040518060400160405280600d81526020017f3c2f746578743e3c2f7376673e00000000000000000000000000000000000000815250600b908051906020019062000086929190620002c8565b5060405162005793380380620057938339818101604052810190620000ac919062000515565b6040518060400160405280601081526020017f495455204e616d652053657276696365000000000000000000000000000000008152506040518060400160405280600381526020017f494e530000000000000000000000000000000000000000000000000000000000815250816000908051906020019062000130929190620002c8565b50806001908051906020019062000149929190620002c8565b50505033600960006101000a81548173ffffffffffffffffffffffffffffffffffffffff021916908373ffffffffffffffffffffffffffffffffffffffff1602179055508060089080519060200190620001a5929190620002c8565b50620001f26040518060400160405280601881526020017f2573206e616d652073657276696365206465706c6f796564000000000000000081525082620001f960201b62001b9a1760201c565b5062000663565b6200029b828260405160240162000212929190620005c3565b6040516020818303038152906040527f4b5c4277000000000000000000000000000000000000000000000000000000007bffffffffffffffffffffffffffffffffffffffffffffffffffffffff19166020820180517bffffffffffffffffffffffffffffffffffffffffffffffffffffffff83818316178352505050506200029f60201b60201c565b5050565b60008151905060006a636f6e736f6c652e6c6f679050602083016000808483855afa5050505050565b828054620002d6906200062d565b90600052602060002090601f016020900481019282620002fa576000855562000346565b82601f106200031557805160ff191683800117855562000346565b8280016001018555821562000346579182015b828111156200034557825182559160200191906001019062000328565b5b50905062000355919062000359565b5090565b5b80821115620003745760008160009055506001016200035a565b5090565b6000604051905090565b600080fd5b600080fd5b600080fd5b600080fd5b6000601f19601f8301169050919050565b7f4e487b7100000000000000000000000000000000000000000000000000000000600052604160045260246000fd5b620003e18262000396565b810181811067ffffffffffffffff82111715620004035762000402620003a7565b5b80604052505050565b60006200041862000378565b9050620004268282620003d6565b919050565b600067ffffffffffffffff821115620004495762000448620003a7565b5b620004548262000396565b9050602081019050919050565b60005b838110156200048157808201518184015260208101905062000464565b8381111562000491576000848401525b50505050565b6000620004ae620004a8846200042b565b6200040c565b905082815260208101848484011115620004cd57620004cc62000391565b5b620004da84828562000461565b509392505050565b600082601f830112620004fa57620004f96200038c565b5b81516200050c84826020860162000497565b91505092915050565b6000602082840312156200052e576200052d62000382565b5b600082015167ffffffffffffffff8111156200054f576200054e62000387565b5b6200055d84828501620004e2565b91505092915050565b600081519050919050565b600082825260208201905092915050565b60006200058f8262000566565b6200059b818562000571565b9350620005ad81856020860162000461565b620005b88162000396565b840191505092915050565b60006040820190508181036000830152620005df818562000582565b90508181036020830152620005f5818462000582565b90509392505050565b7f4e487b7100000000000000000000000000000000000000000000000000000000600052602260045260246000fd5b600060028204905060018216806200064657607f821691505b602082108114156200065d576200065c620005fe565b5b50919050565b614c7f80620006736000396000f3fe60806040526004361061019c5760003560e01c806370a08231116100ec578063bf40fac11161008a578063e985e9c511610064578063e985e9c514610624578063f2c298be14610661578063fb825e5f1461067d578063fe2c6198146106a85761019c565b8063bf40fac114610581578063c1880a98146105be578063c87b56dd146105e75761019c565b806395d89b41116100c657806395d89b41146104c75780639791c097146104f2578063a22cb4651461052f578063b88d4fde146105585761019c565b806370a08231146104345780638da5cb5b146104715780638f32d59b1461049c5761019c565b8063264492351161015957806342842e0e1161013357806342842e0e146103545780634622ab031461037d578063541e771d146103ba5780636352211e146103f75761019c565b806326449235146102d55780632d551432146103125780633ccfd60b1461033d5761019c565b806301ffc9a7146101a157806306fdde03146101de578063081812fc14610209578063095ea7b31461024657806311dd88451461026f57806323b872dd146102ac575b600080fd5b3480156101ad57600080fd5b506101c860048036038101906101c3919061307f565b6106e5565b6040516101d591906130c7565b60405180910390f35b3480156101ea57600080fd5b506101f36107c7565b604051610200919061317b565b60405180910390f35b34801561021557600080fd5b50610230600480360381019061022b91906131d3565b610859565b60405161023d9190613241565b60405180910390f35b34801561025257600080fd5b5061026d60048036038101906102689190613288565b6108de565b005b34801561027b57600080fd5b506102966004803603810190610291919061332d565b6109f6565b6040516102a3919061317b565b60405180910390f35b3480156102b857600080fd5b506102d360048036038101906102ce919061337a565b610aa9565b005b3480156102e157600080fd5b506102fc60048036038101906102f791906134fd565b610b09565b6040516103099190613241565b60405180910390f35b34801561031e57600080fd5b50610327610b52565b604051610334919061317b565b60405180910390f35b34801561034957600080fd5b50610352610be0565b005b34801561036057600080fd5b5061037b6004803603810190610376919061337a565b610ca6565b005b34801561038957600080fd5b506103a4600480360381019061039f91906131d3565b610cc6565b6040516103b1919061317b565b60405180910390f35b3480156103c657600080fd5b506103e160048036038101906103dc91906134fd565b610d66565b6040516103ee919061317b565b60405180910390f35b34801561040357600080fd5b5061041e600480360381019061041991906131d3565b610e1c565b60405161042b9190613241565b60405180910390f35b34801561044057600080fd5b5061045b60048036038101906104569190613546565b610ece565b6040516104689190613582565b60405180910390f35b34801561047d57600080fd5b50610486610f86565b60405161049391906135be565b60405180910390f35b3480156104a857600080fd5b506104b1610fac565b6040516104be91906130c7565b60405180910390f35b3480156104d357600080fd5b506104dc611004565b6040516104e9919061317b565b60405180910390f35b3480156104fe57600080fd5b506105196004803603810190610514919061332d565b611096565b60405161052691906130c7565b60405180910390f35b34801561053b57600080fd5b5061055660048036038101906105519190613605565b61114a565b005b34801561056457600080fd5b5061057f600480360381019061057a91906136e6565b611160565b005b34801561058d57600080fd5b506105a860048036038101906105a3919061332d565b6111c2565b6040516105b59190613241565b60405180910390f35b3480156105ca57600080fd5b506105e560048036038101906105e09190613769565b61120d565b005b3480156105f357600080fd5b5061060e600480360381019061060991906131d3565b6112e8565b60405161061b919061317b565b60405180910390f35b34801561063057600080fd5b5061064b600480360381019061064691906137ea565b61143a565b60405161065891906130c7565b60405180910390f35b61067b6004803603810190610676919061332d565b6114ce565b005b34801561068957600080fd5b50610692611916565b60405161069f9190613936565b60405180910390f35b3480156106b457600080fd5b506106cf60048036038101906106ca919061332d565b611af4565b6040516106dc9190613582565b60405180910390f35b60007f80ac58cd000000000000000000000000000000000000000000000000000000007bffffffffffffffffffffffffffffffffffffffffffffffffffffffff1916827bffffffffffffffffffffffffffffffffffffffffffffffffffffffff191614806107b057507f5b5e139f000000000000000000000000000000000000000000000000000000007bffffffffffffffffffffffffffffffffffffffffffffffffffffffff1916827bffffffffffffffffffffffffffffffffffffffffffffffffffffffff1916145b806107c057506107bf82611c36565b5b9050919050565b6060600080546107d690613987565b80601f016020809104026020016040519081016040528092919081815260200182805461080290613987565b801561084f5780601f106108245761010080835404028352916020019161084f565b820191906000526020600020905b81548152906001019060200180831161083257829003601f168201915b5050505050905090565b600061086482611ca0565b6108a3576040517f08c379a000000000000000000000000000000000000000000000000000000000815260040161089a90613a2b565b60405180910390fd5b6004600083815260200190815260200160002060009054906101000a900473ffffffffffffffffffffffffffffffffffffffff169050919050565b60006108e982610e1c565b90508073ffffffffffffffffffffffffffffffffffffffff168373ffffffffffffffffffffffffffffffffffffffff16141561095a576040517f08c379a000000000000000000000000000000000000000000000000000000000815260040161095190613abd565b60405180910390fd5b8073ffffffffffffffffffffffffffffffffffffffff16610979611d0c565b73ffffffffffffffffffffffffffffffffffffffff1614806109a857506109a7816109a2611d0c565b61143a565b5b6109e7576040517f08c379a00000000000000000000000000000000000000000000000000000000081526004016109de90613b4f565b60405180910390fd5b6109f18383611d14565b505050565b6060600d8383604051610a0a929190613b9f565b90815260200160405180910390208054610a2390613987565b80601f0160208091040260200160405190810160405280929190818152602001828054610a4f90613987565b8015610a9c5780601f10610a7157610100808354040283529160200191610a9c565b820191906000526020600020905b815481529060010190602001808311610a7f57829003601f168201915b5050505050905092915050565b610aba610ab4611d0c565b82611dcd565b610af9576040517f08c379a0000000000000000000000000000000000000000000000000000000008152600401610af090613c2a565b60405180910390fd5b610b04838383611eab565b505050565b600c818051602081018201805184825260208301602085012081835280955050505050506000915054906101000a900473ffffffffffffffffffffffffffffffffffffffff1681565b60088054610b5f90613987565b80601f0160208091040260200160405190810160405280929190818152602001828054610b8b90613987565b8015610bd85780601f10610bad57610100808354040283529160200191610bd8565b820191906000526020600020905b815481529060010190602001808311610bbb57829003601f168201915b505050505081565b610be8610fac565b610bf157600080fd5b600047905060003373ffffffffffffffffffffffffffffffffffffffff1682604051610c1c90613c7b565b60006040518083038185875af1925050503d8060008114610c59576040519150601f19603f3d011682016040523d82523d6000602084013e610c5e565b606091505b5050905080610ca2576040517f08c379a0000000000000000000000000000000000000000000000000000000008152600401610c9990613cdc565b60405180910390fd5b5050565b610cc183838360405180602001604052806000815250611160565b505050565b600e6020528060005260406000206000915090508054610ce590613987565b80601f0160208091040260200160405190810160405280929190818152602001828054610d1190613987565b8015610d5e5780601f10610d3357610100808354040283529160200191610d5e565b820191906000526020600020905b815481529060010190602001808311610d4157829003601f168201915b505050505081565b600d818051602081018201805184825260208301602085012081835280955050505050506000915090508054610d9b90613987565b80601f0160208091040260200160405190810160405280929190818152602001828054610dc790613987565b8015610e145780601f10610de957610100808354040283529160200191610e14565b820191906000526020600020905b815481529060010190602001808311610df757829003601f168201915b505050505081565b6000806002600084815260200190815260200160002060009054906101000a900473ffffffffffffffffffffffffffffffffffffffff169050600073ffffffffffffffffffffffffffffffffffffffff168173ffffffffffffffffffffffffffffffffffffffff161415610ec5576040517f08c379a0000000000000000000000000000000000000000000000000000000008152600401610ebc90613d6e565b60405180910390fd5b80915050919050565b60008073ffffffffffffffffffffffffffffffffffffffff168273ffffffffffffffffffffffffffffffffffffffff161415610f3f576040517f08c379a0000000000000000000000000000000000000000000000000000000008152600401610f3690613e00565b60405180910390fd5b600360008373ffffffffffffffffffffffffffffffffffffffff1673ffffffffffffffffffffffffffffffffffffffff168152602001908152602001600020549050919050565b600960009054906101000a900473ffffffffffffffffffffffffffffffffffffffff1681565b6000600960009054906101000a900473ffffffffffffffffffffffffffffffffffffffff1673ffffffffffffffffffffffffffffffffffffffff163373ffffffffffffffffffffffffffffffffffffffff1614905090565b60606001805461101390613987565b80601f016020809104026020016040519081016040528092919081815260200182805461103f90613987565b801561108c5780601f106110615761010080835404028352916020019161108c565b820191906000526020600020905b81548152906001019060200180831161106f57829003601f168201915b5050505050905090565b600060036110e784848080601f016020809104026020016040519081016040528093929190818152602001838380828437600081840152601f19601f82011690508083019250505050505050612112565b101580156111425750600a61113f84848080601f016020809104026020016040519081016040528093929190818152602001838380828437600081840152601f19601f82011690508083019250505050505050612112565b11155b905092915050565b61115c611155611d0c565b83836122c7565b5050565b61117161116b611d0c565b83611dcd565b6111b0576040517f08c379a00000000000000000000000000000000000000000000000000000000081526004016111a790613c2a565b60405180910390fd5b6111bc84848484612434565b50505050565b6000600c83836040516111d6929190613b9f565b908152602001604051809103902060009054906101000a900473ffffffffffffffffffffffffffffffffffffffff16905092915050565b600c848460405161121f929190613b9f565b908152602001604051809103902060009054906101000a900473ffffffffffffffffffffffffffffffffffffffff1673ffffffffffffffffffffffffffffffffffffffff163373ffffffffffffffffffffffffffffffffffffffff16146112b2576040517f82b4290000000000000000000000000000000000000000000000000000000000815260040160405180910390fd5b8181600d86866040516112c6929190613b9f565b908152602001604051809103902091906112e1929190612eea565b5050505050565b60606112f382611ca0565b611332576040517f08c379a000000000000000000000000000000000000000000000000000000000815260040161132990613e92565b60405180910390fd5b600060066000848152602001908152602001600020805461135290613987565b80601f016020809104026020016040519081016040528092919081815260200182805461137e90613987565b80156113cb5780601f106113a0576101008083540402835291602001916113cb565b820191906000526020600020905b8154815290600101906020018083116113ae57829003601f168201915b5050505050905060006113dc612490565b90506000815114156113f2578192505050611435565b60008251111561142757808260405160200161140f929190613ee3565b60405160208183030381529060405292505050611435565b611430846124a7565b925050505b919050565b6000600560008473ffffffffffffffffffffffffffffffffffffffff1673ffffffffffffffffffffffffffffffffffffffff16815260200190815260200160002060008373ffffffffffffffffffffffffffffffffffffffff1673ffffffffffffffffffffffffffffffffffffffff16815260200190815260200160002060009054906101000a900460ff16905092915050565b600073ffffffffffffffffffffffffffffffffffffffff16600c83836040516114f8929190613b9f565b908152602001604051809103902060009054906101000a900473ffffffffffffffffffffffffffffffffffffffff1673ffffffffffffffffffffffffffffffffffffffff1614611574576040517f3a81d6fc00000000000000000000000000000000000000000000000000000000815260040160405180910390fd5b61157e8282611096565b6115c15781816040517f7f19f48d0000000000000000000000000000000000000000000000000000000081526004016115b8929190613f34565b60405180910390fd5b60006115cd8383611af4565b9050803410156115dc57600080fd5b6000838360086040516020016115f493929190614038565b60405160208183030381529060405290506000600a82600b60405160200161161e93929190614069565b6040516020818303038152906040529050600061163b600761254e565b9050600061168c87878080601f016020809104026020016040519081016040528093929190818152602001838380828437600081840152601f19601f82011690508083019250505050505050612112565b905060006116998261255c565b905061178d604051806060016040528060318152602001614ba06031913989898080601f016020809104026020016040519081016040528093929190818152602001838380828437600081840152601f19601f820116905080830192505050505050506008805461170990613987565b80601f016020809104026020016040519081016040528092919081815260200182805461173590613987565b80156117825780601f1061175757610100808354040283529160200191611782565b820191906000526020600020905b81548152906001019060200180831161176557829003601f168201915b5050505050866126bd565b60006117c38661179c8761275f565b846040516020016117af93929190614216565b60405160208183030381529060405261275f565b90506000816040516020016117d891906142bf565b604051602081830303815290604052905061180a604051806060016040528060398152602001614b67603991396128f7565b6118496040518060400160405280600f81526020017f46696e616c20746f6b656e5552493a000000000000000000000000000000000081525082611b9a565b61186a604051806060016040528060398152602001614bd1603991396128f7565b6118743386612990565b61187e85826129ae565b33600c8b8b604051611891929190613b9f565b908152602001604051809103902060006101000a81548173ffffffffffffffffffffffffffffffffffffffff021916908373ffffffffffffffffffffffffffffffffffffffff1602179055508989600e600088815260200190815260200160002091906118ff929190612eea565b5061190a6007612a22565b50505050505050505050565b60606119566040518060400160405280601f81526020017f47657474696e6720616c6c206e616d65732066726f6d20636f6e7472616374008152506128f7565b6000611962600761254e565b67ffffffffffffffff81111561197b5761197a6133d2565b5b6040519080825280602002602001820160405280156119ae57816020015b60608152602001906001900390816119995790505b50905060005b6119be600761254e565b811015611aec57600e600082815260200190815260200160002080546119e390613987565b80601f0160208091040260200160405190810160405280929190818152602001828054611a0f90613987565b8015611a5c5780601f10611a3157610100808354040283529160200191611a5c565b820191906000526020600020905b815481529060010190602001808311611a3f57829003601f168201915b5050505050828281518110611a7457611a736142e1565b5b6020026020010181905250611ad96040518060400160405280601781526020017f4e616d6520666f7220746f6b656e20256420697320257300000000000000000081525082848481518110611acc57611acb6142e1565b5b6020026020010151612a38565b8080611ae49061433f565b9150506119b4565b508091505090565b600080611b4484848080601f016020809104026020016040519081016040528093929190818152602001838380828437600081840152601f19601f82011690508083019250505050505050612112565b905060008111611b5357600080fd5b6003811415611b6d576706f05b59d3b20000915050611b94565b6004811415611b8757670429d069189e0000915050611b94565b67016345785d8a00009150505b92915050565b611c328282604051602401611bb0929190614388565b6040516020818303038152906040527f4b5c4277000000000000000000000000000000000000000000000000000000007bffffffffffffffffffffffffffffffffffffffffffffffffffffffff19166020820180517bffffffffffffffffffffffffffffffffffffffffffffffffffffffff8381831617835250505050612ad7565b5050565b60007f01ffc9a7000000000000000000000000000000000000000000000000000000007bffffffffffffffffffffffffffffffffffffffffffffffffffffffff1916827bffffffffffffffffffffffffffffffffffffffffffffffffffffffff1916149050919050565b60008073ffffffffffffffffffffffffffffffffffffffff166002600084815260200190815260200160002060009054906101000a900473ffffffffffffffffffffffffffffffffffffffff1673ffffffffffffffffffffffffffffffffffffffff1614159050919050565b600033905090565b816004600083815260200190815260200160002060006101000a81548173ffffffffffffffffffffffffffffffffffffffff021916908373ffffffffffffffffffffffffffffffffffffffff160217905550808273ffffffffffffffffffffffffffffffffffffffff16611d8783610e1c565b73ffffffffffffffffffffffffffffffffffffffff167f8c5be1e5ebec7d5bd14f71427d1e84f3dd0314c0f7b2291e5b200ac8c7c3b92560405160405180910390a45050565b6000611dd882611ca0565b611e17576040517f08c379a0000000000000000000000000000000000000000000000000000000008152600401611e0e90614431565b60405180910390fd5b6000611e2283610e1c565b90508073ffffffffffffffffffffffffffffffffffffffff168473ffffffffffffffffffffffffffffffffffffffff161480611e9157508373ffffffffffffffffffffffffffffffffffffffff16611e7984610859565b73ffffffffffffffffffffffffffffffffffffffff16145b80611ea25750611ea1818561143a565b5b91505092915050565b8273ffffffffffffffffffffffffffffffffffffffff16611ecb82610e1c565b73ffffffffffffffffffffffffffffffffffffffff1614611f21576040517f08c379a0000000000000000000000000000000000000000000000000000000008152600401611f18906144c3565b60405180910390fd5b600073ffffffffffffffffffffffffffffffffffffffff168273ffffffffffffffffffffffffffffffffffffffff161415611f91576040517f08c379a0000000000000000000000000000000000000000000000000000000008152600401611f8890614555565b60405180910390fd5b611f9c838383612b00565b611fa7600082611d14565b6001600360008573ffffffffffffffffffffffffffffffffffffffff1673ffffffffffffffffffffffffffffffffffffffff1681526020019081526020016000206000828254611ff79190614575565b925050819055506001600360008473ffffffffffffffffffffffffffffffffffffffff1673ffffffffffffffffffffffffffffffffffffffff168152602001908152602001600020600082825461204e91906145a9565b92505081905550816002600083815260200190815260200160002060006101000a81548173ffffffffffffffffffffffffffffffffffffffff021916908373ffffffffffffffffffffffffffffffffffffffff160217905550808273ffffffffffffffffffffffffffffffffffffffff168473ffffffffffffffffffffffffffffffffffffffff167fddf252ad1be2c89b69c2b068fc378daa952ba7f163c4a11628f55a4df523b3ef60405160405180910390a461210d838383612b05565b505050565b60008060008084519050600092505b808210156122bc57600085838151811061213e5761213d6142e1565b5b602001015160f81c60f81b9050608060f81b817effffffffffffffffffffffffffffffffffffffffffffffffffffffffffffff1916101561218d5760018361218691906145a9565b92506122a8565b60e060f81b817effffffffffffffffffffffffffffffffffffffffffffffffffffffffffffff191610156121cf576002836121c891906145a9565b92506122a7565b60f060f81b817effffffffffffffffffffffffffffffffffffffffffffffffffffffffffffff191610156122115760038361220a91906145a9565b92506122a6565b60f8801b817effffffffffffffffffffffffffffffffffffffffffffffffffffffffffffff191610156122525760048361224b91906145a9565b92506122a5565b60fc60f81b817effffffffffffffffffffffffffffffffffffffffffffffffffffffffffffff191610156122945760058361228d91906145a9565b92506122a4565b6006836122a191906145a9565b92505b5b5b5b5b5082806122b49061433f565b935050612121565b829350505050919050565b8173ffffffffffffffffffffffffffffffffffffffff168373ffffffffffffffffffffffffffffffffffffffff161415612336576040517f08c379a000000000000000000000000000000000000000000000000000000000815260040161232d9061464b565b60405180910390fd5b80600560008573ffffffffffffffffffffffffffffffffffffffff1673ffffffffffffffffffffffffffffffffffffffff16815260200190815260200160002060008473ffffffffffffffffffffffffffffffffffffffff1673ffffffffffffffffffffffffffffffffffffffff16815260200190815260200160002060006101000a81548160ff0219169083151502179055508173ffffffffffffffffffffffffffffffffffffffff168373ffffffffffffffffffffffffffffffffffffffff167f17307eab39ab6107e8899845ad3d59bd9653f200f220920489ca2b5937696c318360405161242791906130c7565b60405180910390a3505050565b61243f848484611eab565b61244b84848484612b0a565b61248a576040517f08c379a0000000000000000000000000000000000000000000000000000000008152600401612481906146dd565b60405180910390fd5b50505050565b606060405180602001604052806000815250905090565b60606124b282611ca0565b6124f1576040517f08c379a00000000000000000000000000000000000000000000000000000000081526004016124e89061476f565b60405180910390fd5b60006124fb612490565b9050600081511161251b5760405180602001604052806000815250612546565b806125258461255c565b604051602001612536929190613ee3565b6040516020818303038152906040525b915050919050565b600081600001549050919050565b606060008214156125a4576040518060400160405280600181526020017f300000000000000000000000000000000000000000000000000000000000000081525090506126b8565b600082905060005b600082146125d65780806125bf9061433f565b915050600a826125cf91906147be565b91506125ac565b60008167ffffffffffffffff8111156125f2576125f16133d2565b5b6040519080825280601f01601f1916602001820160405280156126245781602001600182028036833780820191505090505b5090505b600085146126b15760018261263d9190614575565b9150600a8561264c91906147ef565b603061265891906145a9565b60f81b81838151811061266e5761266d6142e1565b5b60200101907effffffffffffffffffffffffffffffffffffffffffffffffffffffffffffff1916908160001a905350600a856126aa91906147be565b9450612628565b8093505050505b919050565b612759848484846040516024016126d79493929190614820565b6040516020818303038152906040527f9fd009f5000000000000000000000000000000000000000000000000000000007bffffffffffffffffffffffffffffffffffffffffffffffffffffffff19166020820180517bffffffffffffffffffffffffffffffffffffffffffffffffffffffff8381831617835250505050612ad7565b50505050565b6060600082519050600081141561278857604051806020016040528060008152509150506128f2565b6000600360028361279991906145a9565b6127a391906147be565b60046127af919061487a565b905060006020826127c091906145a9565b67ffffffffffffffff8111156127d9576127d86133d2565b5b6040519080825280601f01601f19166020018201604052801561280b5781602001600182028036833780820191505090505b5090506000604051806060016040528060408152602001614c0a604091399050600181016020830160005b868110156128af5760038101905062ffffff818a015116603f8160121c168401518060081b905060ff603f83600c1c1686015116810190508060081b905060ff603f8360061c1686015116810190508060081b905060ff603f831686015116810190508060e01b90508084526004840193505050612836565b5060038606600181146128c957600281146128d9576128e4565b613d3d60f01b60028303526128e4565b603d60f81b60018303525b508484525050819450505050505b919050565b61298d8160405160240161290b919061317b565b6040516020818303038152906040527f41304fac000000000000000000000000000000000000000000000000000000007bffffffffffffffffffffffffffffffffffffffffffffffffffffffff19166020820180517bffffffffffffffffffffffffffffffffffffffffffffffffffffffff8381831617835250505050612ad7565b50565b6129aa828260405180602001604052806000815250612c92565b5050565b6129b782611ca0565b6129f6576040517f08c379a00000000000000000000000000000000000000000000000000000000081526004016129ed90614946565b60405180910390fd5b80600660008481526020019081526020016000209080519060200190612a1d929190612f70565b505050565b6001816000016000828254019250508190555050565b612ad2838383604051602401612a5093929190614966565b6040516020818303038152906040527fa3f5c739000000000000000000000000000000000000000000000000000000007bffffffffffffffffffffffffffffffffffffffffffffffffffffffff19166020820180517bffffffffffffffffffffffffffffffffffffffffffffffffffffffff8381831617835250505050612ad7565b505050565b60008151905060006a636f6e736f6c652e6c6f679050602083016000808483855afa5050505050565b505050565b505050565b6000612b2b8473ffffffffffffffffffffffffffffffffffffffff16612ced565b15612c85578373ffffffffffffffffffffffffffffffffffffffff1663150b7a02612b54611d0c565b8786866040518563ffffffff1660e01b8152600401612b769493929190614a00565b6020604051808303816000875af1925050508015612bb257506040513d601f19601f82011682018060405250810190612baf9190614a61565b60015b612c35573d8060008114612be2576040519150601f19603f3d011682016040523d82523d6000602084013e612be7565b606091505b50600081511415612c2d576040517f08c379a0000000000000000000000000000000000000000000000000000000008152600401612c24906146dd565b60405180910390fd5b805181602001fd5b63150b7a0260e01b7bffffffffffffffffffffffffffffffffffffffffffffffffffffffff1916817bffffffffffffffffffffffffffffffffffffffffffffffffffffffff191614915050612c8a565b600190505b949350505050565b612c9c8383612d10565b612ca96000848484612b0a565b612ce8576040517f08c379a0000000000000000000000000000000000000000000000000000000008152600401612cdf906146dd565b60405180910390fd5b505050565b6000808273ffffffffffffffffffffffffffffffffffffffff163b119050919050565b600073ffffffffffffffffffffffffffffffffffffffff168273ffffffffffffffffffffffffffffffffffffffff161415612d80576040517f08c379a0000000000000000000000000000000000000000000000000000000008152600401612d7790614ada565b60405180910390fd5b612d8981611ca0565b15612dc9576040517f08c379a0000000000000000000000000000000000000000000000000000000008152600401612dc090614b46565b60405180910390fd5b612dd560008383612b00565b6001600360008473ffffffffffffffffffffffffffffffffffffffff1673ffffffffffffffffffffffffffffffffffffffff1681526020019081526020016000206000828254612e2591906145a9565b92505081905550816002600083815260200190815260200160002060006101000a81548173ffffffffffffffffffffffffffffffffffffffff021916908373ffffffffffffffffffffffffffffffffffffffff160217905550808273ffffffffffffffffffffffffffffffffffffffff16600073ffffffffffffffffffffffffffffffffffffffff167fddf252ad1be2c89b69c2b068fc378daa952ba7f163c4a11628f55a4df523b3ef60405160405180910390a4612ee660008383612b05565b5050565b828054612ef690613987565b90600052602060002090601f016020900481019282612f185760008555612f5f565b82601f10612f3157803560ff1916838001178555612f5f565b82800160010185558215612f5f579182015b82811115612f5e578235825591602001919060010190612f43565b5b509050612f6c9190612ff6565b5090565b828054612f7c90613987565b90600052602060002090601f016020900481019282612f9e5760008555612fe5565b82601f10612fb757805160ff1916838001178555612fe5565b82800160010185558215612fe5579182015b82811115612fe4578251825591602001919060010190612fc9565b5b509050612ff29190612ff6565b5090565b5b8082111561300f576000816000905550600101612ff7565b5090565b6000604051905090565b600080fd5b600080fd5b60007fffffffff0000000000000000000000000000000000000000000000000000000082169050919050565b61305c81613027565b811461306757600080fd5b50565b60008135905061307981613053565b92915050565b6000602082840312156130955761309461301d565b5b60006130a38482850161306a565b91505092915050565b60008115159050919050565b6130c1816130ac565b82525050565b60006020820190506130dc60008301846130b8565b92915050565b600081519050919050565b600082825260208201905092915050565b60005b8381101561311c578082015181840152602081019050613101565b8381111561312b576000848401525b50505050565b6000601f19601f8301169050919050565b600061314d826130e2565b61315781856130ed565b93506131678185602086016130fe565b61317081613131565b840191505092915050565b600060208201905081810360008301526131958184613142565b905092915050565b6000819050919050565b6131b08161319d565b81146131bb57600080fd5b50565b6000813590506131cd816131a7565b92915050565b6000602082840312156131e9576131e861301d565b5b60006131f7848285016131be565b91505092915050565b600073ffffffffffffffffffffffffffffffffffffffff82169050919050565b600061322b82613200565b9050919050565b61323b81613220565b82525050565b60006020820190506132566000830184613232565b92915050565b61326581613220565b811461327057600080fd5b50565b6000813590506132828161325c565b92915050565b6000806040838503121561329f5761329e61301d565b5b60006132ad85828601613273565b92505060206132be858286016131be565b9150509250929050565b600080fd5b600080fd5b600080fd5b60008083601f8401126132ed576132ec6132c8565b5b8235905067ffffffffffffffff81111561330a576133096132cd565b5b602083019150836001820283011115613326576133256132d2565b5b9250929050565b600080602083850312156133445761334361301d565b5b600083013567ffffffffffffffff81111561336257613361613022565b5b61336e858286016132d7565b92509250509250929050565b6000806000606084860312156133935761339261301d565b5b60006133a186828701613273565b93505060206133b286828701613273565b92505060406133c3868287016131be565b9150509250925092565b600080fd5b7f4e487b7100000000000000000000000000000000000000000000000000000000600052604160045260246000fd5b61340a82613131565b810181811067ffffffffffffffff82111715613429576134286133d2565b5b80604052505050565b600061343c613013565b90506134488282613401565b919050565b600067ffffffffffffffff821115613468576134676133d2565b5b61347182613131565b9050602081019050919050565b82818337600083830152505050565b60006134a061349b8461344d565b613432565b9050828152602081018484840111156134bc576134bb6133cd565b5b6134c784828561347e565b509392505050565b600082601f8301126134e4576134e36132c8565b5b81356134f484826020860161348d565b91505092915050565b6000602082840312156135135761351261301d565b5b600082013567ffffffffffffffff81111561353157613530613022565b5b61353d848285016134cf565b91505092915050565b60006020828403121561355c5761355b61301d565b5b600061356a84828501613273565b91505092915050565b61357c8161319d565b82525050565b60006020820190506135976000830184613573565b92915050565b60006135a882613200565b9050919050565b6135b88161359d565b82525050565b60006020820190506135d360008301846135af565b92915050565b6135e2816130ac565b81146135ed57600080fd5b50565b6000813590506135ff816135d9565b92915050565b6000806040838503121561361c5761361b61301d565b5b600061362a85828601613273565b925050602061363b858286016135f0565b9150509250929050565b600067ffffffffffffffff8211156136605761365f6133d2565b5b61366982613131565b9050602081019050919050565b600061368961368484613645565b613432565b9050828152602081018484840111156136a5576136a46133cd565b5b6136b084828561347e565b509392505050565b600082601f8301126136cd576136cc6132c8565b5b81356136dd848260208601613676565b91505092915050565b60008060008060808587031215613700576136ff61301d565b5b600061370e87828801613273565b945050602061371f87828801613273565b9350506040613730878288016131be565b925050606085013567ffffffffffffffff81111561375157613750613022565b5b61375d878288016136b8565b91505092959194509250565b600080600080604085870312156137835761378261301d565b5b600085013567ffffffffffffffff8111156137a1576137a0613022565b5b6137ad878288016132d7565b9450945050602085013567ffffffffffffffff8111156137d0576137cf613022565b5b6137dc878288016132d7565b925092505092959194509250565b600080604083850312156138015761380061301d565b5b600061380f85828601613273565b925050602061382085828601613273565b9150509250929050565b600081519050919050565b600082825260208201905092915050565b6000819050602082019050919050565b600082825260208201905092915050565b6000613872826130e2565b61387c8185613856565b935061388c8185602086016130fe565b61389581613131565b840191505092915050565b60006138ac8383613867565b905092915050565b6000602082019050919050565b60006138cc8261382a565b6138d68185613835565b9350836020820285016138e885613846565b8060005b85811015613924578484038952815161390585826138a0565b9450613910836138b4565b925060208a019950506001810190506138ec565b50829750879550505050505092915050565b6000602082019050818103600083015261395081846138c1565b905092915050565b7f4e487b7100000000000000000000000000000000000000000000000000000000600052602260045260246000fd5b6000600282049050600182168061399f57607f821691505b602082108114156139b3576139b2613958565b5b50919050565b7f4552433732313a20617070726f76656420717565727920666f72206e6f6e657860008201527f697374656e7420746f6b656e0000000000000000000000000000000000000000602082015250565b6000613a15602c836130ed565b9150613a20826139b9565b604082019050919050565b60006020820190508181036000830152613a4481613a08565b9050919050565b7f4552433732313a20617070726f76616c20746f2063757272656e74206f776e6560008201527f7200000000000000000000000000000000000000000000000000000000000000602082015250565b6000613aa76021836130ed565b9150613ab282613a4b565b604082019050919050565b60006020820190508181036000830152613ad681613a9a565b9050919050565b7f4552433732313a20617070726f76652063616c6c6572206973206e6f74206f7760008201527f6e6572206e6f7220617070726f76656420666f7220616c6c0000000000000000602082015250565b6000613b396038836130ed565b9150613b4482613add565b604082019050919050565b60006020820190508181036000830152613b6881613b2c565b9050919050565b600081905092915050565b6000613b868385613b6f565b9350613b9383858461347e565b82840190509392505050565b6000613bac828486613b7a565b91508190509392505050565b7f4552433732313a207472616e736665722063616c6c6572206973206e6f74206f60008201527f776e6572206e6f7220617070726f766564000000000000000000000000000000602082015250565b6000613c146031836130ed565b9150613c1f82613bb8565b604082019050919050565b60006020820190508181036000830152613c4381613c07565b9050919050565b600081905092915050565b50565b6000613c65600083613c4a565b9150613c7082613c55565b600082019050919050565b6000613c8682613c58565b9150819050919050565b7f4661696c656420746f207769746864726177204d617469630000000000000000600082015250565b6000613cc66018836130ed565b9150613cd182613c90565b602082019050919050565b60006020820190508181036000830152613cf581613cb9565b9050919050565b7f4552433732313a206f776e657220717565727920666f72206e6f6e657869737460008201527f656e7420746f6b656e0000000000000000000000000000000000000000000000602082015250565b6000613d586029836130ed565b9150613d6382613cfc565b604082019050919050565b60006020820190508181036000830152613d8781613d4b565b9050919050565b7f4552433732313a2062616c616e636520717565727920666f7220746865207a6560008201527f726f206164647265737300000000000000000000000000000000000000000000602082015250565b6000613dea602a836130ed565b9150613df582613d8e565b604082019050919050565b60006020820190508181036000830152613e1981613ddd565b9050919050565b7f45524337323155524953746f726167653a2055524920717565727920666f722060008201527f6e6f6e6578697374656e7420746f6b656e000000000000000000000000000000602082015250565b6000613e7c6031836130ed565b9150613e8782613e20565b604082019050919050565b60006020820190508181036000830152613eab81613e6f565b9050919050565b6000613ebd826130e2565b613ec78185613b6f565b9350613ed78185602086016130fe565b80840191505092915050565b6000613eef8285613eb2565b9150613efb8284613eb2565b91508190509392505050565b6000613f1383856130ed565b9350613f2083858461347e565b613f2983613131565b840190509392505050565b60006020820190508181036000830152613f4f818486613f07565b90509392505050565b7f2e00000000000000000000000000000000000000000000000000000000000000600082015250565b6000613f8e600183613b6f565b9150613f9982613f58565b600182019050919050565b60008190508160005260206000209050919050565b60008154613fc681613987565b613fd08186613b6f565b94506001821660008114613feb5760018114613ffc5761402f565b60ff1983168652818601935061402f565b61400585613fa4565b60005b8381101561402757815481890152600182019150602081019050614008565b838801955050505b50505092915050565b6000614045828587613b7a565b915061405082613f81565b915061405c8284613fb9565b9150819050949350505050565b60006140758286613fb9565b91506140818285613eb2565b915061408d8284613fb9565b9150819050949350505050565b7f7b226e616d65223a202200000000000000000000000000000000000000000000600082015250565b60006140d0600a83613b6f565b91506140db8261409a565b600a82019050919050565b7f222c20226465736372697074696f6e223a20224120646f6d61696e206f6e207460008201527f686520495455204e616d652053657276696365222c2022696d616765223a202260208201527f646174613a696d6167652f7376672b786d6c3b6261736536342c000000000000604082015250565b6000614168605a83613b6f565b9150614173826140e6565b605a82019050919050565b7f222c226c656e677468223a220000000000000000000000000000000000000000600082015250565b60006141b4600c83613b6f565b91506141bf8261417e565b600c82019050919050565b7f227d000000000000000000000000000000000000000000000000000000000000600082015250565b6000614200600283613b6f565b915061420b826141ca565b600282019050919050565b6000614221826140c3565b915061422d8286613eb2565b91506142388261415b565b91506142448285613eb2565b915061424f826141a7565b915061425b8284613eb2565b9150614266826141f3565b9150819050949350505050565b7f646174613a6170706c69636174696f6e2f6a736f6e3b6261736536342c000000600082015250565b60006142a9601d83613b6f565b91506142b482614273565b601d82019050919050565b60006142ca8261429c565b91506142d68284613eb2565b915081905092915050565b7f4e487b7100000000000000000000000000000000000000000000000000000000600052603260045260246000fd5b7f4e487b7100000000000000000000000000000000000000000000000000000000600052601160045260246000fd5b600061434a8261319d565b91507fffffffffffffffffffffffffffffffffffffffffffffffffffffffffffffffff82141561437d5761437c614310565b5b600182019050919050565b600060408201905081810360008301526143a28185613142565b905081810360208301526143b68184613142565b90509392505050565b7f4552433732313a206f70657261746f7220717565727920666f72206e6f6e657860008201527f697374656e7420746f6b656e0000000000000000000000000000000000000000602082015250565b600061441b602c836130ed565b9150614426826143bf565b604082019050919050565b6000602082019050818103600083015261444a8161440e565b9050919050565b7f4552433732313a207472616e736665722066726f6d20696e636f72726563742060008201527f6f776e6572000000000000000000000000000000000000000000000000000000602082015250565b60006144ad6025836130ed565b91506144b882614451565b604082019050919050565b600060208201905081810360008301526144dc816144a0565b9050919050565b7f4552433732313a207472616e7366657220746f20746865207a65726f2061646460008201527f7265737300000000000000000000000000000000000000000000000000000000602082015250565b600061453f6024836130ed565b915061454a826144e3565b604082019050919050565b6000602082019050818103600083015261456e81614532565b9050919050565b60006145808261319d565b915061458b8361319d565b92508282101561459e5761459d614310565b5b828203905092915050565b60006145b48261319d565b91506145bf8361319d565b9250827fffffffffffffffffffffffffffffffffffffffffffffffffffffffffffffffff038211156145f4576145f3614310565b5b828201905092915050565b7f4552433732313a20617070726f766520746f2063616c6c657200000000000000600082015250565b60006146356019836130ed565b9150614640826145ff565b602082019050919050565b6000602082019050818103600083015261466481614628565b9050919050565b7f4552433732313a207472616e7366657220746f206e6f6e20455243373231526560008201527f63656976657220696d706c656d656e7465720000000000000000000000000000602082015250565b60006146c76032836130ed565b91506146d28261466b565b604082019050919050565b600060208201905081810360008301526146f6816146ba565b9050919050565b7f4552433732314d657461646174613a2055524920717565727920666f72206e6f60008201527f6e6578697374656e7420746f6b656e0000000000000000000000000000000000602082015250565b6000614759602f836130ed565b9150614764826146fd565b604082019050919050565b600060208201905081810360008301526147888161474c565b9050919050565b7f4e487b7100000000000000000000000000000000000000000000000000000000600052601260045260246000fd5b60006147c98261319d565b91506147d48361319d565b9250826147e4576147e361478f565b5b828204905092915050565b60006147fa8261319d565b91506148058361319d565b9250826148155761481461478f565b5b828206905092915050565b6000608082019050818103600083015261483a8187613142565b9050818103602083015261484e8186613142565b905081810360408301526148628185613142565b90506148716060830184613573565b95945050505050565b60006148858261319d565b91506148908361319d565b9250817fffffffffffffffffffffffffffffffffffffffffffffffffffffffffffffffff04831182151516156148c9576148c8614310565b5b828202905092915050565b7f45524337323155524953746f726167653a2055524920736574206f66206e6f6e60008201527f6578697374656e7420746f6b656e000000000000000000000000000000000000602082015250565b6000614930602e836130ed565b915061493b826148d4565b604082019050919050565b6000602082019050818103600083015261495f81614923565b9050919050565b600060608201905081810360008301526149808186613142565b905061498f6020830185613573565b81810360408301526149a18184613142565b9050949350505050565b600081519050919050565b600082825260208201905092915050565b60006149d2826149ab565b6149dc81856149b6565b93506149ec8185602086016130fe565b6149f581613131565b840191505092915050565b6000608082019050614a156000830187613232565b614a226020830186613232565b614a2f6040830185613573565b8181036060830152614a4181846149c7565b905095945050505050565b600081519050614a5b81613053565b92915050565b600060208284031215614a7757614a7661301d565b5b6000614a8584828501614a4c565b91505092915050565b7f4552433732313a206d696e7420746f20746865207a65726f2061646472657373600082015250565b6000614ac46020836130ed565b9150614acf82614a8e565b602082019050919050565b60006020820190508181036000830152614af381614ab7565b9050919050565b7f4552433732313a20746f6b656e20616c7265616479206d696e74656400000000600082015250565b6000614b30601c836130ed565b9150614b3b82614afa565b602082019050919050565b60006020820190508181036000830152614b5f81614b23565b905091905056fe0a2d2d2d2d2d2d2d2d2d2d2d2d2d2d2d2d2d2d2d2d2d2d2d2d2d2d2d2d2d2d2d2d2d2d2d2d2d2d2d2d2d2d2d2d2d2d2d2d2d2d2d2d2d2d2d2d5265676973746572696e672025732e2573206f6e2074686520636f6e7472616374207769746820746f6b656e49642025642d2d2d2d2d2d2d2d2d2d2d2d2d2d2d2d2d2d2d2d2d2d2d2d2d2d2d2d2d2d2d2d2d2d2d2d2d2d2d2d2d2d2d2d2d2d2d2d2d2d2d2d2d2d2d2d0a4142434445464748494a4b4c4d4e4f505152535455565758595a6162636465666768696a6b6c6d6e6f707172737475767778797a303132333435363738392b2fa26469706673582212204be7e5f9c1ad6b69edaa0079abbf9da3e606ec8d402b4ad21843a02059e6e9ab64736f6c634300080a00333c73766720786d6c6e733d22687474703a2f2f7777772e77332e6f72672f323030302f737667222077696474683d2232373022206865696768743d22323730222066696c6c3d226e6f6e65223e3c706174682066696c6c3d2275726c282361292220643d224d302030683237307632373048307a222f3e3c646566733e3c66696c7465722069643d22622220636f6c6f722d696e746572706f6c6174696f6e2d66696c746572733d2273524742222066696c746572556e6974733d227573657253706163654f6e55736522206865696768743d22323730222077696474683d22323730223e3c666544726f70536861646f772064783d2230222064793d22312220737464446576696174696f6e3d22322220666c6f6f642d6f7061636974793d222e323235222077696474683d223230302522206865696768743d2232303025222f3e3c2f66696c7465723e3c2f646566733e3c672066696c6c2d72756c653d226576656e6f6464223e3c70617468207374726f6b653d222339373937393722207374726f6b652d6c696e656361703d22726f756e6422207374726f6b652d77696474683d22322220643d224d33302e3939322035342e35353576352e3339356d2d322e3337332d34372e3832364c323420356d313020372e3132344c33382e36322035222f3e3c636972636c652063783d223438222063793d2233332220723d223132222066696c6c3d2223423444464642222f3e3c636972636c652063783d223135222063793d2233332220723d223132222066696c6c3d2223423444464642222f3e3c706174682066696c6c3d22234646414634302220643d224d32322031392e39393941382e39393920382e39393920302030203120333120313163342e39372030203920342e3032203920382e3939395634334832325631392e3939395a222f3e3c706174682066696c6c3d22233539353935392220643d224d32322034336831387636633020332e3331342d322e36393520362d352e3939342036682d362e3031324332342e3638342035352032322035322e333037203232203439762d365a6d302d3868313876344832327a6d302d3868313876344832327a222f3e3c2f673e3c646566733e3c6c696e6561724772616469656e742069643d2261222078313d2230222079313d2230222078323d22323730222079323d2232373022206772616469656e74556e6974733d227573657253706163654f6e557365223e3c73746f702073746f702d636f6c6f723d2223636235656565222f3e3c73746f70206f66667365743d2231222073746f702d636f6c6f723d2223306364376534222073746f702d6f7061636974793d222e3939222f3e3c2f6c696e6561724772616469656e743e3c2f646566733e3c7465787420783d2233322e352220793d223233312220666f6e742d73697a653d223237222066696c6c3d2223666666222066696c7465723d2275726c282362292220666f6e742d66616d696c793d22506c7573204a616b617274612053616e732c44656a6156752053616e732c4e6f746f20436f6c6f7220456d6f6a692c4170706c6520436f6c6f7220456d6f6a692c73616e732d73657269662220666f6e742d7765696768743d22626f6c64223e",
  "linkReferences": {},
  "deployedLinkReferences": {}
}